:02000004080AE8
:1000000000000A08E8240A080000060006000501AE
:0800100004021F0C00000000B7
:04001800801F0A0833
:10001C0009480A4908B5884205D0094A824202D0EB
:10002C00121A01F0C3FE0748074A0021121A01F008
:10003C00CBFE064808BD00BF0000002054240A086F
:10004C006C0000206C000020840100208401002042
:10005C0070B501F033FD0025054E064CA41BA40819
:10006C00A54200D170BD56F8043B98470135F7E71F
:10007C0024240A0844240A0800F05AB808B500F0F1
:10008C00C1F8BDE8084001F0D1BC00F07DBD00F026
:10009C007BBD00F081BD00F07FBD0078B0FA80F030
:1000AC0040097047012303707047704710B5012059
:1000BC0000F002FF0B240022FF20114600F00CFF81
:1000CC004FF47A7000F090FDFF22013C104611466F
:1000DC0000F002FFA4B24FF4FA7000F085FD002C82
:1000EC00E9D12046BDE8104000F0E6BE08B50C4B47
:1000FC000C48196800F0ECFA0A4800F002FA30B12A
:10010C0001F05AFBBDE80840074900F0A8BE01F019
:10011C0053FB064900F0A3FEBDE80840FFF7C6BF3D
:10012C00C800002070000020941F0A08A81F0A08AD
:10013C0008B501F041FB4FF4614101F02BFB01F0DC
:10014C003BFB01F02EFB0028F9D001F035FB0C49EC
:10015C0000F085FE01F08CFA00224FF4165101F0EC
:10016C0081FA01F085FA01F081FA0028F9D001F04A
:10017C0023FB044900F073FEBDE80840FFF7B6BF4F
:10018C00C41F0A08D01F0A08F8B51C4904460026EB
:10019C0000F00EFF1A4F01F06BFA03681B699847C9
:1001AC0050B301F065FA03685B699847C0B25228F6
:1001BC00F1D13546022D08D9032EC6F1030388BFB1
:1001CC0000231E4406F0FF06E5E701F051FA036830
:1001DC0001355B699847A0F13001204600F023FF00
:1001EC0001F0EAFA394600F027FE01F0E5FA216841
:1001FC0000F035FEEDB2DDE72046F8BDF51F0A082C
:10020C00E11F0A0830B585B06846FFF7BDFF01F065
:10021C00D3FA1A4900F010FE01F0CEFA009900F062
:10022C001EFE174800F06DF920B1009A15491448CC
:10023C0000F0D3FA01F0C0FA134900F0FDFD01F013
:10024C00BBFA0546684600F0FFFE041E14DA2D21A9
:10025C00284600F0F5FD61420A22284600F009FE0E
:10026C00284600F0F0FD40F6B83000F0BDFC6846C2
:10027C0000F054FE05B030BD2146EDE7EB1F0A0837
:10028C0070000020F61F0A08FF1F0A0838B50D4C35
:10029C000D4D20460D4900F08BFE20460C4C2A4695
:1002AC000C4901F055FC40F25B7220460A4B0B499D
:1002BC0000F03AF82A462046BDE83840084901F0DB
:1002CC0047BC00BFC80000206C0000200B200A08AF
:1002DC0070000020290F0A08B7000A08000000204F
:1002EC000D080A0838B51D46059B04460363002318
:1002FC00436302B1826419B104F1380000F06BFE63
:10030C00049BE0692365069BA4F84C50FF2BB8BFF7
:10031C00FF23A4F8543008B1FFF7BDFEB4F8540025
:10032C00FFF7B5FEE06138BD2DE9FF41044600251D
:10033C00174698460E4601F0EBF80B49E56104F1BF
:10034C00380000F035FEFF23CDE901830F23204652
:10035C00009332463B462946A564FFF7C3FF20466F
:10036C0004B0BDE8F08100BFF51F0A0810B50446C3
:10037C00204600F0E3FF0028FAD0204600F0B7FE3C
:10038C00C0B210BD2DE9F0470546C46989464FF04F
:10039C000108FFF7EBFF002720704446EB6993F848
:1003AC0000A00AF0F00A2846FFF7E0FF2646EB69AA
:1003BC000134985500F07F0303FB08770306A4B2C1
:1003CC00BFB24FEAC818EED4631EBAF1300F89F8E9
:1003DC00003022D12846D5F81C80FFF7C7FF08F85B
:1003EC0004002846D5F81C80FFF7C0FFF41C023629
:1003FC00B6B208F806000226A4B2B6B2BE420ED2BD
:10040C002846FFF7B3FFB5F854300136A34284BF3A
:10041C00EB6918550134A4B2EFE70026EDE7B5F807
:10042C005430A3422CBF20460020BDE8F0872DE9B4
:10043C00F34115461E461A4607460023964602F01F
:10044C007F0CBEF17F0F02A888BF4CF0800C5C1CA7
:10045C00BEF17F0F03444FEAD212E4B203F804CC8E
:10046C001ED8C4F10403C4F10500E954224601A9C5
:10047C00284405EB030801F099FC721C2244414608
:10048C00384600F020FE054600F0EAF901347862A7
:10049C003444A8B2231A5842584102B0BDE8F08146
:1004AC002346CBE7E02210B5C36904461A7000223C
:1004BC00C3695A70C169022200F005FE204600F0A3
:1004CC0077FF00F0CDF9C4E9090010BD0233F0B597
:1004DC00054698B20023CE5C9CB24EB1B5F854C020
:1004EC005F1C844504D9441C16543B46A0B2F2E769
:1004FC0099B2411A0A44210A02F8021C02F8013C82
:10050C00F0BD38B5044600F0AAFF002814BF012541
:10051C00002502D1204600F04BFF284638BD0000D4
:10052C002DE9F04786B00446894617461E46DDF88D
:10053C0038809DF848A0FFF7E4FF0546002840F0FE
:10054C00C380A16C002940F086800346B4F84C208F
:10055C002046A16B00F0F4FF002878D001232384FF
:10056C009DF84C30E269042B584B7FD11868998860
:10057C009B79ADF804108DF806300090C2F8050098
:10058C009DF80630BDF80410D3720C23A2F80910A4
:10059C00B8F1000F7FD09DF840009DF83C20400141
:1005AC0040EAC20040F00600C0B2BAF1000F01D11F
:1005BC0000F0FD001FB1002E6FD140F08000E26909
:1005CC00D054226DE169581C12120A54E169206D55
:1005DC009A1C8854033349462046E269FFF776FF9C
:1005EC000346B8F1000F0BD04146E2692046FFF7F5
:1005FC006DFFE269034611992046FFF767FF03463A
:10060C0067B139462046E269FFF760FF03462EB119
:10061C0031462046E269FFF759FF0346053B10219E
:10062C00E2699BB22046FFF702FF00F019F94FF484
:10063C007A76C4E90900204600F080FE80BB00F009
:10064C000FF9A36AC01A236D73439842F3D920465D
:10065C0000F0AEFE34E0684600F036FB2B466946EF
:10066C002046B4F84C2000F0F9FD75E7EC46D3F8C1
:10067C000700D3F80B10DB7BACE803008CF80030E0
:10068C006B4603CBC2F80500C2F809109CF8003089
:10069C0053730E237CE7022087E740F0C0008EE7FF
:1006AC0069462046FFF76EFE0428D0D1E369DE7858
:1006BC00002ECCD100F0D4F80125A06284F82C6077
:1006CC00284606B0BDE8F0870025F9E716200A0891
:1006DC007FB501230422CDE9043200231A46CDE96B
:1006EC000233CDE90033FFF71BFF07B05DF804FBC5
:1006FC002DE9F14FDDF8348004468B4616461F4633
:10070C009DF828A09DF82C509DF83090FFF7F9FE2D
:10071C00002850D00021B4F85420E06901F054FBBB
:10072C00052359462046E269FFF7D0FE6B1E012BCC
:10073C0015D8238CE26901339BB223841B0A135412
:10074C00411CE369228C89B2023080B25A54B8F150
:10075C00000F04D0238C5A1C2284A8F800300021EE
:10076C000B188F42E2699BB20AD9B4F854C09C456D
:10077C0006D916F801C0013102F803C089B2EFE7BF
:10078C00BAF1000F0CBF30213121B9F1000F01D0AB
:10079C0041F00801022D09D141F004012046053B2E
:1007AC009BB201B0BDE8F04FFFF741BE012D08BF71
:1007BC0041F00201F2E701B0BDE8F08F1FB5089CD3
:1007CC000394002402949DF81C4001949DF8184059
:1007DC000094FFF78DFF04B010BD7FB505461046A1
:1007EC0014460E4601F038FB00220346CDE90122E7
:1007FC000092314622462846FFF7E0FF04B070BD58
:10080C0038B50546FFF77DFE10B12846FFF74AFEC6
:10081C00E86908B1FFF73FFC05F1380000F07EFBFA
:10082C000A4BAC692B607CB16368013B63605BB9BC
:10083C00236820469B689847A368013BA3601BB9BB
:10084C0023682046DB689847284638BDC4200A0830
:10085C0008B5024B1B685B68019308BD9C01060838
:10086C0008B5024B1B685B69019308BD9C01060827
:10087C0008B5024B1B681B68019308BDBC01060838
:10088C0008B5024B1B685B68019308BDBC010608E8
:10089C0008B5024B1B689B68019308BDBC01060898
:1008AC0008B5024B1B68DB68019308BDBC01060848
:1008BC0008B5024B1B681B69019308BDBC010608F7
:1008CC0008B5024B1B681B6A019308BDBC010608E6
:1008DC0008B5024B1B681B6B019308BDBC010608D5
:1008EC0008B5024B1B685B6C019308BDBC01060884
:1008FC0008B5024B1B689B69019308BDC40106082F
:10090C0008B5024B1B685B6A019308BDC40106085D
:10091C0008B5024B1B689B6A019308BDC40106080D
:10092C0008B5024B1B68DB6A019308BDC4010608BD
:10093C0008B5024B1B681B6B019308BDC40106086C
:10094C0008B5024B1B685B6B019308BDC40106081C
:10095C0008B5024B1B681B6C019308BDC40106084B
:10096C0008B5024B1B68DB6C019308BDC40106087B
:10097C0008B5024B1B681B68019308BDD80106081B
:10098C0008B5024B1B685B68019308BDD8010608CB
:10099C0008B5024B1B681B69019308BDD8010608FA
:1009AC0008B5024B1B685B69019308BDD8010608AA
:1009BC0008B5024B1B689B69019308BDD80106085A
:1009CC0008B5024B1B68DB69019308BDD80106080A
:1009DC0008B5024B1B681B6A019308BDD8010608B9
:1009EC0008B5024B1B685B6A019308BDD801060869
:1009FC0008B5024B1B685B6C019308BDC00106086F
:100A0C0008B5024B1B689B6C019308BDC00106081E
:100A1C0008B5024B1B685B68019308BDA80102086E
:100A2C0008B5024B1B689B68019308BDA80102081E
:100A3C0008B5024B1B68DB68019308BDA8010208CE
:100A4C0008B5024B1B689B69019308BDA8010208FD
:100A5C0008B5024B1B68DB69019308BDA8010208AD
:100A6C0008B5024B1B681B6D019308BDA801020859
:100A7C0008B5024B1B685B68019308BDA40106080E
:100A8C0008B5024B1B685B69019308BDA4010608FD
:100A9C0008B5034B1B68D3F89030019308BD0000D8
:100AAC00A401060808B5034B1B68D3F89C300193CE
:100ABC0008BD0000A401060808B5024B1B68DB6BDF
:100ACC00019308BDCC01060808B5024B1B685B6896
:100ADC00019308BDC801060808B5024B1B689B684A
:100AEC00019308BDC801060808B5024B1B68DB68FA
:100AFC00019308BDC801060808B5024B1B681B69A9
:100B0C00019308BDC801060808B5024B1B685B6958
:100B1C00019308BDC801060808B5024B1B689B6908
:100B2C00019308BDC801060808B5024B1B68DB69B8
:100B3C00019308BDC801060808B5024B1B681B6A67
:100B4C00019308BDC801060808B5024B1B681B6B56
:100B5C00019308BDC801060808B5024B1B685B6B06
:100B6C00019308BDC801060808B5024B1B681B6C35
:100B7C00019308BDC801060808B5024B1B685B6CE5
:100B8C00019308BDC801060808B5024B1B681B6819
:100B9C00019308BDA001060808B5024B1B685B68F1
:100BAC00019308BDA001060808B5024B1B689B68A1
:100BBC00019308BDA001060808B5024B1B68DB6B4E
:100BCC00019308BDA001060808B5024B1B681B6CFD
:100BDC00019308BDA001060808B5024B1B685B6CAD
:100BEC00019308BDA00106080021FFF749BF10B50D
:100BFC008368044613B1032201469847204610BD72
:100C0C007047F8B50E46002400F10807051D17F8CB
:100C1C00011D0A22304600F02CF9AF42044401D1E8
:100C2C002046F8BD002CF2D02E21304600F008F9F9
:100C3C000444ECE710B50446182100F08EFF204662
:100C4C0010BD000010B50446044B1122002140F8E1
:100C5C00043B01F0B9F8204610BD00BF30200A0853
:100C6C000346074A10B543F8042B01F1100251F862
:100C7C00044B914243F8044BF9D10A781A7010BD19
:100C8C0030200A08024AC0E900210422027570478C
:100C9C0030200A0810B59DF8084044EA03240423C8
:100CAC0044EA024444EA01644460037510BD000048
:100CBC0013B5044C04609DF810400094FFF7EAFF54
:100CCC0002B010BD30200A0807B5064B0360CB7884
:100CDC0000938B784A780978FFF7DCFF03B05DF856
:100CEC0004FB00BF30200A08014B024A1A6070470F
:100CFC00D80000203C200A08002340681A46FFF761
:100D0C00E3BE002202214068FFF7EEBE00224068DD
:100D1C001146FFF7E1BE002240681146FFF7ECBE1A
:100D2C00002340681A461946FFF7EEBE00234068C0
:100D3C001A461946FFF7F0BE00214068FFF714BFB2
:100D4C0000214068FFF718BF0022406881F00101C4
:100D5C00FFF7EABE00224068FFF7F6BE00224068AB
:100D6C001146FFF7F9BE002240681146FFF7E4BEBA
:100D7C0070B515468EB0044608A8FFF763FF112224
:100D8C00002103A801F020F80026284601F064F8A1
:100D9C000A4B009681B25B68284603AAFFF730FE27
:100DAC0030B131462046FFF76DFF20460EB070BDC6
:100DBC00204603A9FFF754FFF7E700BF58010020B6
:100DCC00034A044B042814BF10461846704700BF52
:100DDC00DC00002058010020024B034A1A6000225C
:100DEC005A607047DC00002048200A08F8B5064617
:100DFC000D4600248F18BD420CD0336830469B68DA
:100E0C0015F8011B9847031E01DB1C44F3E7002C6B
:100E1C0008BF1C462046F8BD70B505460C46084672
:100E2C0049B101F019F82B68024621462846BDE865
:100E3C007040DB68184770BD08B5FFF7EDFF08BDC3
:100E4C0003689B68184738B50D210546FFF7F8FF76
:100E5C000A2104462846FFF7F3FF204438BD38B575
:100E6C000546FFF7D9FF04462846FFF7ECFF204460
:100E7C0038BD0023012A98BF0A2230B58BB00C462E
:100E8C008DF8243009A92546B4FBF2F404FB125367
:100E9C00DBB2092B94BF30333733DBB2AA4201F8F3
:100EAC00013DF0D9FFF7B8FF0BB030BD10B50446CB
:100EBC00FFF79DFE204610BD10B50446FFF7C0FDA0
:100ECC00844208D01CB1BDE81040FFF7A9BDBDE8B5
:100EDC001040FFF7ADBD10BD70B505460E4614466B
:100EEC00FFF7AEFD50B144EA062444EA0540FFF793
:100EFC008FFDBDE87040E720FFF7AABD70BD000074
:100F0C0000230348034A0449836000F021BE00BF5C
:100F1C00E40000206C000020B90E0A0810B504464D
:100F2C000068FFF739FE204610BD10B50446006876
:100F3C0008B1FFF731FE0023C4E90133236010BD73
:100F4C0038B504460D4600680131FFF72DFE10B18F
:100F5C00C4E90005012038BD10B50368044623B16F
:100F6C0043688B4201D3012010BD2046FFF7E8FFF8
:100F7C000028F9D0A368002BF5D122681370F2E792
:100F8C0070B50E46114604461546FFF7E5FF20B92D
:100F9C002046FFF7CAFF204670BD2A46314620681E
:100FAC00A56000F003FF00212268A368D154F2E78A
:100FBC0038B5002304460D46C0E900338360037343
:100FCC0039B1084600F048FF294602462046FFF793
:100FDC00D7FF204638BD38B505460C4649B1084602
:100FEC0000F03AFF214602462846FFF7C9FF284683
:100FFC0038BDFFF79AFFFAE770B505460E4609B9FA
:10100C00002070BD6AB1846814442146FFF7A4FF28
:10101C000028F5D02868AB683146184400F014FF5E
:10102C00AC600120EDE713B50A2204460846694678
:10103C0000F0B0FC684600F00FFF694602462046FF
:10104C00FFF7DAFF02B010BD006808B100F09CBEDB
:10105C00704710B50446006818B1FFF79DFD0023DA
:10106C00236010BD10B50446FFF7F3FF204610BDFA
:10107C000222002010B5084B084C1A60084BC4E93A
:10108C000000A360FFF7F4FC2046BDE81040054AC1
:10109C00054900F05DBD00BF00010020F4000020F8
:1010AC000000FFFF6C00002071100A0813B50368E4
:1010BC008DF80710DC6B012247F230530DF107015C
:1010CC00A04702B010BD10B40368DC6B47F230537C
:1010DC00A44610BC604713B5134602688DF8071080
:1010EC00D46B0DF107010122A04702B010BD10B561
:1010FC0043690446B3F88620B3F884309A4208D08A
:10110C006369B3F88420511CA3F884101344187934
:10111C0010BD03681B6998470028F1D14FF0FF30D0
:10112C00F6E770477047000010B50446064B0846BA
:10113C00994204F10C0404D000F012FD002808BF01
:10114C000024204610BD00BFB4200A0810B5044688
:10115C00AC2100F002FD204610BDAC2100F0FDBC1E
:10116C0038B50B4B8469054603607CB16368013B61
:10117C0063605BB9236820469B689847A368013B72
:10118C00A3601BB923682046DB689847284638BD06
:10119C00C4200A0810B50446FFF7E2FF20461C21C4
:1011AC0000F0DBFC204610BD70B5044606464D69C8
:1011BC00044B8C3544F8043B0FCD0FC42B683046E0
:1011CC00237070BD30200A0810B543690446B3F88B
:1011DC008620B3F884309A4205D06369B3F8842032
:1011EC001344187910BD03681B6998470028F4D183
:1011FC004FF0FF30F6E7F8B543691746B3F8862091
:10120C00B3F8843005469A420E4616D069693046CA
:10121C00B1F88430B1F88640E41ABC4228BF3C4691
:10122C0004332246194400F0C1FD6A69B2F88430D7
:10123C002344A2F884302046F8BD03681B69984704
:10124C000028E3D14FF0FF34F5E700234269A2F800
:10125C0084304269A2F88630704700002DE9F043D3
:10126C001F4603688BB0DB6A05460C46164698474A
:10127C003846FFF7A5FD0368DB689847002854D073
:10128C0033460622012102200097D5F81480FFF77F
:10129C00FFFA2023C8F800004FF00008CDE902380F
:1012AC006B6901201B6823490193234B02AA00930D
:1012BC004346FFF7D5FB6B691868FFF7E1FA002886
:1012CC0033D02846FFF7C1FF0223ADF80830E3798D
:1012DC0076BA8DF80C30A3794FF4FA508DF80D30A6
:1012EC006379ADF80A608DF80E3014F8043F8DF870
:1012FC000F30FFF77DFB6B6906461022186802A9B8
:10130C00FFF7CEFA81463046FFF772FB0FCC6E69C1
:10131C008C360FC6236833702F61B9F1000F07D0DC
:10132C002B682846DB6A984740460BB0BDE8F08333
:10133C000120FAE77C200A0883200A0838B54269A4
:10134C000446B2F886302BB1B2F884209A4201D10F
:10135C00FFF77BFF2069FFF733FD0368DB689847D5
:10136C00F8B163691868FFF78BFAD0B16069B0F80F
:10137C0086107F2915D8051DC1F180020023006855
:10138C002944FFF795FA00280BDD6369B3F8862032
:10139C000AB9A3F884206369B3F886201044A3F833
:1013AC0086006369B3F88600B3F88430C01A38BD80
:1013BC0038B5436904461868FFF762FA18B16369D7
:1013CC001868FFF77DFA6569FFF782FA2860606993
:1013DC00112200218C3000F0F7FC2046BDE838408B
:1013EC00FFF733BF10B5436904461868FFF748FA96
:1013FC0008B9002010BD2069FFF7E2FC0368DB6828
:10140C0098470028F5D063691868FFF731FAB0FAED
:10141C0080F04009EEE708B5FFF7E4FF003818BF8D
:10142C00012008BD2DE9F3410027476004460D4615
:10143C0016469846FFF7D6FF70B1CDE90087606974
:10144C003B46324629460068FFF74AFA002800DA84
:10145C00606002B0BDE8F0814FF0FF30F8E770B586
:10146C000546FFF7BFFFE8B96B69B3F88610B3F810
:10147C008420914216D11868FFF702FA08B90020AF
:10148C0070BD6B691868FFF7F3F901280446F6D1B3
:10149C002B6828461B69984730B92B682846DB6AAD
:1014AC009847ECE70120EBE72046E9E7002310B56D
:1014BC0004460160C0F884308830FFF7C3FB204637
:1014CC0010BD0000F8B54FF47A720023C0E9013268
:1014DC000D4A0361026043610446AC200E46FEF7E0
:1014EC00D4FD051E05F10C0708D00123C5E9013315
:1014FC00064B314638462B60FFF7D8FF2046C4E92F
:10150C000575FFF7A2FEF8BDC4200A08A0200A0842
:10151C0010B50446FFF7DCF901462046FFF7D2FF71
:10152C00204610BD10B504460068FFF7A9F910B1AC
:10153C002068FFF7C5F9204610BD0C30FFF7F2BF4D
:10154C002DE9F0431F4603688FB0DB6A06460D4653
:10155C00904698471348FFF7DEFBF0B102A8FFF75F
:10156C0071FB284600F078FC002481B23B462846EB
:10157C00009403AAFFF744FA90B9336809ADD3F885
:10158C002090094B03AC08930FCC0FC5236842463F
:10159C002B7030463B4608A9C8470FB0BDE8F08316
:1015AC002046FAE7DC00002030200A08024B1A68BB
:1015BC00024B1A60704700BF040000200401002099
:1015CC0070474174704708B5007CFFF7C1F920EAF9
:1015DC00E07008BD08B5007CFFF79AF920EAE070CE
:1015EC0008BD08B5007CFFF7A3F940EAE07008BD20
:1015FC0008B5007CFFF794F940EAE07008BD007C68
:10160C00FFF79EB970B5467C04460D462EB12946AF
:10161C00207CBDE87040FFF773B9007CFFF798F9A8
:10162C000028F4DC304670BD10B50446142100F0DF
:10163C0094FA204610BD00004FF0000C10B5044683
:10164C00084611464FF47A72C4E901C2044A207468
:10165C002260012262741A46FFF74AF9204610BD37
:10166C002C210A080023007CFFF77AB9012070476F
:10167C00F8B51A4E35684DB98420FEF706FD0446C0
:10168C0018B18422294600F09FFB3460144F3D684A
:10169C004DB98420FEF7F9FC044618B18422294682
:1016AC0000F092FB3C600F4D2978BFF35B8F11F07B
:1016BC00010411D12846FEF7F0FC68B121463268CE
:1016CC003B680948FFF7B8FF2846FEF7EBFC074AD2
:1016DC000749054800F03CFA0348F8BD0C0100200E
:1016EC001001002008010020140100206C000020D3
:1016FC00CD150A0841747047704708B50021007C6D
:10170C00FFF756F940EAE07008BD08B50121007CEE
:10171C00FFF74EF940EAE07008BD08B5007CFFF712
:10172C003FF920EAE07008BD08B5007CFFF730F9FE
:10173C0020EAE07008BD38B50446007C0D46FFF782
:10174C002FF9002801DC607C28B12946207CFFF7AA
:10175C0037F920EAE07038BD007CFFF739B910B5D5
:10176C000446142100F0F9F9204610BD10B54FF4D1
:10177C007A73044608460021C4E90113044B207413
:10178C002360012311466374FFF7F2F8204610BD65
:10179C005C210A080022007CFFF7F2B8007CFFF7FE
:1017AC001FB9FFF7FBBF10B504461422002100F04F
:1017BC000BFB204610BD000030B50F4D87B001A8C3
:1017CC00FFF7F1FF2978BFF35B8F11F0010410D103
:1017DC002846FEF762FC60B1214601AA0748FFF7D4
:1017EC00C5FF2846FEF75EFC054A0649034800F093
:1017FC00AFF9024807B030BD2801002030010020AD
:10180C006C00002005170A0810B5044614220021AC
:10181C0000F0DAFA204610BD10B50F4C86B001A8C6
:10182C00FFF7F2FF2378BFF35B8FDB0710D4204662
:10183C00FEF733FC60B1012101AA0848FFF796FFBF
:10184C002046FEF72FFC064A0649044800F080F9B2
:10185C00024806B010BD00BF2C010020440100203E
:10186C006C00002005170A08002240681146FFF79B
:10187C0043B9F0B5154689B011220E460446002135
:10188C0003A800F0A1FA284600F0E6FA002781B27E
:10189C0073682846009703AAFFF7B2F830B13946AF
:1018AC002046FFF7EFF9204609B0F0BD204603A90A
:1018BC00FFF7D6F9F7E7002240681146FFF73CB96D
:1018CC00002240681146FFF747B900224068FFF735
:1018DC003BB90022406881F00101FFF725B90023D4
:1018EC0040681A461946FFF717B9002340681A4694
:1018FC001946FFF709B9002240681146FFF7ECB80A
:10190C00002202214068FFF7EFB8002340681A4616
:10191C00FFF7DAB80422024B5A60024A1A60704789
:10192C00580100208C210A0810B5044600F094FAE6
:10193C00431E20462344834206D90278197800F8C6
:10194C00011B03F80129F6E710BD70B50C46911E7A
:10195C0022291DD8254630B9302223449D4210D26D
:10196C0005F8012BFAE7B0FBF2F602FB1600C1B248
:10197C00092894BF30315731C9B2304605F8011BE4
:10198C00E9E7002320462B70FFF7CEFF204670BD01
:10199C000020FCE738B5031E0C4615460DDA2D2247
:1019AC00B3F1004F0CBF1846584201230A702A4667
:1019BC001944FFF7CAFF204638BD0123F9E70000A0
:1019CC00014B1860704700BF0800002008B5134B8E
:1019DC0043B1FFF7F1FE03681B699847002801DD4E
:1019EC00AFF300800E4B43B1FFF742FE03681B6957
:1019FC009847002801DDAFF300800A4B0BB1AFF321
:101A0C000080094B43B1FFF707FF03681B69984738
:101A1C00002801DDAFF3008008BD00BF000000000E
:101A2C0000000000000000000000000008B5FFF7F7
:101A3C00CDFFFEF715FF014B186008BD68010020B3
:101A4C000548064A08B5121A054900F0AFF9054BCE
:101A5C00054A1A6008BD00BF004002400440024025
:101A6C0050240A08004002401E1C279A002307B588
:101A7C001A466FF077010093FFF714F803B05DF886
:101A8C0004FB000007B543880A2B08D0502B0BD160
:101A9C00094B1B684BB103B05DF804EB1847FFF71B
:101AAC00E5FF03B05DF804FB00231A466FF07701E5
:101ABC000093FEF7F7FFF4E764010020002110B556
:101ACC001148FFF789F8114B1A68114B9A420CBF59
:101ADC00012200220F4B1A7001D0FFF7B1FFFEF765
:101AEC00B7FE044600F078F90B4B13B12046AFF368
:101AFC00008000210848FEF7DFFFBDE81040002100
:101B0C000648FEF7C5BF00BFCD190A0800400240C9
:101B1C001E1C279A6001002000000000911A0A0880
:101B2C00002313B5074C1A46194620460093FFF7BD
:101B3C00BFF82046044A054902B0BDE8104000F049
:101B4C0007B800BF6C0100206C0000200D0C0A08C7
:101B5C000B460146184600F01BB9FEF79ABA000076
:101B6C00014900F0FBB800BFD8210A087FB500245A
:101B7C001023CDE90234036815469E69CDE9004473
:101B8C006B461268B0479DF8043003F00603062B31
:101B9C0009BF01202046009B2B6004B070BD00984B
:101BAC00904214BF012006207047000010B5044677
:101BBC00024B036000F0CFF8204610BD18220A0833
:101BCC0010B50446FFF7F2FF20460821FFF7C5FFCA
:101BDC00204610BD2DE9F041DDF818801F46DDE9E7
:101BEC00083498450646154607D1079900F0B6F813
:101BFC0018B165710020BDE8F0813946304600F01F
:101C0C00ADF80028F6D00123C4F800802571A3712B
:101C1C00F0E738B515461C4600F0A0F820B10823B3
:101C2C00E36006232560237138BD2DE9F04105469C
:101C3C000C4616461F4600F091F848B9032F07D8FA
:101C4C002368324629462046BDE8F0415B691847B7
:101C5C00BDE8F08110B50446024B0360FFF7A6FF08
:101C6C00204610BD78220A0810B50446FFF7F2FF93
:101C7C0020460C21FFF771FF204610BD2DE9F041E5
:101C8C00DDF81880064690450F4615461C460BD0CD
:101C9C00B0682A460368CDF818801E6A3946234678
:101CAC00B446BDE8F0416047194600F057F80028EB
:101CBC00EED00620BDE8F0812DE9F14F0D46DDE9AF
:101CCC000A4BDDE90CA6194681461746984600F0EA
:101CDC0045F890B1002D3460377109DB2C44A245D6
:101CEC000CBF06240124B471002001B0BDE8F08FB4
:101CFC000235F9D10123B371F6E7544506D15946A3
:101D0C00484600F02BF808B17771EDE7D9F80800D8
:101D1C003A460368CDE90CA6CDE90A4BDC692946A5
:101D2C004346A44601B0BDE8F04F60472DE9F041B1
:101D3C0007460C4615461E46FFF76BFF48B9B868B8
:101D4C002A46036821469F693346BC46BDE8F041EC
:101D5C006047BDE8F081704700207047814208B5AC
:101D6C000ED0406803782A2B0CD049680B782A2BAC
:101D7C0008BF013100F05EF8B0FA80F0400908BDF0
:101D8C000120FCE70020FAE70A22002100F0E8B865
:101D9C0010B504460448134620B10A4602202146D9
:101DAC00AFF3008010BD00BF000000000A44914258
:101DBC0000F1FF3300D1704710B511F8014B91427F
:101DCC0003F8014FF9D110BD03460244934200D1F0
:101DDC00704703F8011BF9E738B5104B04461D6832
:101DEC00AB6BB3B91820FEF7CFFE0246A86320B93F
:101DFC0042210B4B0B48FEF7E7FE0B490B4BC0E99E
:101E0C0000130B4B002183600B2383810120C2E95B
:101E1C0004010022AB6B1C615A6138BD0800002024
:101E2C00B1220A08C8220A080E33CDAB34126DE673
:101E3C00ECDE050010F8012B11F8013B012A28BF3C
:101E4C009A42F7D0D01A7047034611F8012B03F8C9
:101E5C00012B002AF9D17047034613F8012B002AF5
:101E6C00FBD1181A01387047012B2DE9F047804639
:101E7C0001D0242B06D9FEF79FFE16230360002009
:101E8C00BDE8F0870D46354F284615F8014BE65D49
:101E9C0016F00806F8D12D2C2FD101262C78851C94
:101EAC00002B57D0102B09D1302C07D1287800F0FB
:101EBC00DF00582849D110236C780235002706F131
:101ECC00004E0EF1FF3EBEFBF3F9384603FB19EA58
:101EDC00A4F1300CBCF1090F14D86446A34222DDE6
:101EEC00002F1DDB81451BD301D1A24518DB012737
:101EFC0000FB034015F8014BEAE72B2C04BF2C78B0
:101F0C00851CCDE7A4F1410CBCF1190F01D8373C6D
:101F1C00E4E7A4F1610CBCF1190F04D8573CDDE7E0
:101F2C004FF0FF37E6E7002F07DA22237046C8F898
:101F3C000030002AA4D0691E05E006B14042002AF8
:101F4C009ED0002FF7D111609AE73024002BB5D129
:101F5C000823B3E7302CA9D00A23AFE722230A08C1
:101F6C0013460A46014602480068FFF77DBF00BFD2
:101F7C00080000201D000A085D000A0885000A08F8
:101F8C0089000A0800000000436F6E6E656374657B
:101F9C006420746F2062726F6B6572004661696CAD
:101FAC00656420746F20636F6E6E65637420746F4C
:101FBC002062726F6B65720053657269616C206F81
:101FCC0070656E0053656E736F7220636F6E6E6515
:101FDC00637465640072656164696E673A200044DD
:101FEC00697374616E63653A200064697374616E21
:101FFC00636500496E742072616E67653A20006DEE
:10200C00617850686F746F6E350000044D515454F4
:10201C000400064D51497364700300000000000079
:10202C00000000000F0C0A080D0C0A08410C0A08ED
:10203C00617070000000000000000000050D0A082F
:10204C000F0D0A08190D0A08230D0A082D0D0A0890
:10205C00390D0A08450D0A084D0D0A08550D0A08D8
:10206C00610D0A08690D0A08730D0A087D0D0A082E
:10207C00776972696E6700544350436C69656E747E
:10208C0020736F636B65743D2578000000000000C1
:10209C000000000031110A0859110A0847150A08F6
:1020AC0067110A0835110A08000000000000000042
:1020BC0000000000000000006D110A08A1110A08C0
:1020CC00B9100A08D3100A0849130A08FB100A08A9
:1020DC00D5110A082F110A0869120A084D150A08A9
:1020EC0003120A08BD130A086B140A0823140A0801
:1020FC00E3100A0831140A08B5110A0825592D25D0
:10210C006D2D25645425483A254D3A2553257A00E2
:10211C0061736374696D65000000000000000000CD
:10212C00CD150A0835160A0811160A08F90D0A0801
:10213C00E1150A08FD150A08EF150A080B160A081E
:10214C00CF150A08D3150A08000000000000000093
:10215C0005170A086B170A0843170A08F90D0A082D
:10216C0035170A0807170A0817170A0865170A0807
:10217C0027170A0801170A080000000000000000D9
:10218C0017190A080D190A0803190A0875180A08FC
:10219C00F7180A08EB180A08450D0A084D0D0A082D
:1021AC00DF180A08D7180A08CD180A08C3180A0835
:1021BC007F180A08537431395F53705F6D616B651A
:1021CC005F7368617265645F7461670018220A0846
:1021DC00C0210A0878220A08EC210A089C220A0865
:1021EC004E31305F5F637878616269763131375F89
:1021FC005F636C6173735F747970655F696E666F32
:10220C004500000000000000E0210A08B91B0A0884
:10221C00CD1B0A08651D0A08651D0A08371C0A082B
:10222C00791B0A081F1C0A08E11B0A08AB1B0A08C9
:10223C0078220A0848220A08E0210A084E31305F49
:10224C005F637878616269763132305F5F73695FA2
:10225C00636C6173735F747970655F696E666F45EB
:10226C0000000000000000003C220A08611C0A0863
:10227C00751C0A08651D0A08651D0A08371C0A0822
:10228C00791B0A08391D0A08C51C0A08891C0A088A
:10229C0018220A08A4220A08537439747970655FED
:1022AC00696E666F005245454E54206D616C6C6FC3
:1022BC006320737563636565646564002F746D706A
:1022CC002F6A656E6B696E732D4743432D31302D2C
:1022DC00706970656C696E652D34385F32303230E0
:1022EC00313132345F313630363138303633392F84
:1022FC007372632F6E65776C69622F6E65776C698C
:10230C00622F6C6962632F7374646C69622F7261E3
:10231C006E642E6300002020202020202020202806
:10232C002828282820202020202020202020202081
:10233C0020202020202088101010101010101010B9
:10234C0010101010101004040404040404040404F9
:10235C001010101010101041414141414101010178
:10236C000101010101010101010101010101010151
:10237C00011010101010104242424242420202025E
:10238C000202020202020202020202020202020221
:10239C0002101010102000000000000000000000CF
:1023AC000000000000000000000000000000000021
:1023BC000000000000000000000000000000000011
:1023CC000000000000000000000000000000000001
:1023DC0000000000000000000000000000000000F1
:1023EC0000000000000000000000000000000000E1
:1023FC0000000000000000000000000000000000D1
:10240C0000000000000000000000000000000000C0
:10241C00000000000000000099020A08F50C0A08F0
:10242C00E50D0A080D0F0A087D100A08B9150A08EF
:10243C0021190A082D1B0A080000000000000000EA
:04244C00000000008C
:042450000000000088
:10245400C0A800821C210A080C0000200000000013
:102464000000000000000000000000000000000068
:102474000000000000000000000000000000000058
:102484000000000000000000000000000000000048
:102494000000000000000000000000000000000038
:1024A4000000000000000000000000000000000028
:0C24B4000000000000000000000000001C
:1024C000FFFFFFFF00000102030405060708090AD9
:1024D0000B0C0D0E0F101112131415161718191AD4
:0824E0001B1C1D1E1F2028001B
:0424E80078563412DC
:04000005080A001CC9
:00000001FF
